:020000040800F2
:1030000000500020F95C00089D5D0008C59500088F
:103010009D5D00089D5D00089D5D000800000000AA
:103020000000000000000000000000006512010820
:103030009D5D0008000000000113010879DA000816
:103040009D5D00089D5D00089D5D00089D5D000878
:103050009D5D00089D5D00089D5D00089D5D000868
:103060009D5D00089D5D00089D5D00089D5D000858
:103070009D5D00089D5D0008F1E300089D5D00086E
:103080009D5D00089D5D00089D5D00089D5D000838
:10309000392101089D5D00089D5D00089D5D0008C7
:1030A0009D5D00089D5D00089D5D0008755C000841
:1030B000815C0008895C0008955C000815D7000851
:1030C000E9D8000819D70008EDD800089D5D000870
:1030D0009D5D000825E400085DE400089D5D000892
:1030E000E54600089D5D00083D2101080000000044
:1030F00000000000000000000000000000000000D0
:0C31000000000000000000005FF808F173
:1031100010B5054C237833B9044B13B10448AFF311
:1031200000800123237010BDFC0600200000000079
:10313000A4B10108084B10B51BB108480849AFF30A
:1031400000800848036803B910BD074B002BFBD073
:10315000BDE81040184700BF00000000A4B10108FE
:1031600000070020FC0600200000000081F0004164
:1031700002E000BF83F0004330B54FEA41044FEA5C
:10318000430594EA050F08BF90EA020F1FBF54EAF7
:10319000000C55EA020C7FEA645C7FEA655C00F093
:1031A000E2804FEA5454D4EB5555B8BF6D420CDD64
:1031B0002C4480EA020281EA030382EA000083EAE7
:1031C000010180EA020281EA0303362D88BF30BD87
:1031D00011F0004F4FEA01314FF4801C4CEA1131DD
:1031E00002D0404261EB410113F0004F4FEA03333C
:1031F0004CEA133302D0524263EB430394EA050FC7
:1032000000F0A780A4F10104D5F1200E0DDB02FA35
:103210000EFC22FA05F2801841F1000103FA0EF2C9
:10322000801843FA05F359410EE0A5F120050EF18F
:10323000200E012A03FA0EFC28BF4CF0020C43FAC0
:1032400005F3C01851EBE37101F0004507D54FF0CD
:10325000000EDCF1000C7EEB00006EEB0101B1F51D
:10326000801F1BD3B1F5001F0CD349085FEA300063
:103270004FEA3C0C04F101044FEA445212F5800F6E
:1032800080F09A80BCF1004F08BF5FEA500C50F10B
:10329000000041EB045141EA050130BD5FEA4C0CEE
:1032A000404141EB010111F4801FA4F10104E9D177
:1032B00091F0000F04BF01460020B1FA81F308BF6E
:1032C0002033A3F10B03B3F120020CDA0C3208DD3A
:1032D00002F1140CC2F10C0201FA0CF021FA02F115
:1032E0000CE002F11402D8BFC2F1200C01FA02F185
:1032F00020FA0CFCDCBF41EA0C019040E41AA2BFAA
:1033000001EB0451294330BD6FEA04041F3C1CDA71
:103310000C340EDC04F11404C4F1200220FA04F091
:1033200001FA02F340EA030021FA04F345EA03013B
:1033300030BDC4F10C04C4F1200220FA02F001FAFD
:1033400004F340EA0300294630BD21FA04F029467F
:1033500030BD94F0000F83F4801306BF81F4801118
:103360000134013D4EE77FEA645C18BF7FEA655C8B
:1033700029D094EA050F08BF90EA020F05D054EA5D
:10338000000C04BF1946104630BD91EA030F1EBF62
:103390000021002030BD5FEA545C05D14000494166
:1033A00028BF41F0004130BD14F580043CBF01F559
:1033B000801130BD01F0004545F0FE4141F470013F
:1033C0004FF0000030BD7FEA645C1ABF194610461A
:1033D0007FEA655C1CBF0B46024650EA013406BF1B
:1033E00052EA033591EA030F41F4002130BD00BFDA
:1033F00090F0000F04BF0021704730B54FF4806497
:1034000004F132044FF000054FF0000150E700BF17
:1034100090F0000F04BF0021704730B54FF4806476
:1034200004F1320410F0004548BF40424FF0000163
:103430003EE700BF42004FEAE2014FEA31014FEAA6
:1034400002701FBF12F07F4393F07F4F81F06051F5
:10345000704792F0000F14BF93F07F4F704730B564
:103460004FF4607401F0004521F0004120E700BFF7
:1034700050EA010208BF704730B54FF000050AE07E
:1034800050EA010208BF704730B511F0004502D57F
:10349000404261EB41014FF4806404F132045FEA81
:1034A000915C3FF4DCAE4FF003025FEADC0C18BF26
:1034B00003325FEADC0C18BF033202EBDC02C2F11C
:1034C000200300FA03FC20FA02F001FA03FE40EAAE
:1034D0000E0021FA02F11444C1E600BF70B54FF0AE
:1034E000FF0C4CF4E06C1CEA11541DBF1CEA135590
:1034F00094EA0C0F95EA0C0F00F0DEF82C4481EAF8
:10350000030621EA4C5123EA4C5350EA013518BF17
:1035100052EA033541F4801143F4801338D0A0FB04
:1035200002CE4FF00005E1FB02E506F00042E0FBB1
:1035300003E54FF00006E1FB03569CF0000F18BFB7
:103540004EF0010EA4F1FF04B6F5007F64F540745F
:1035500004D25FEA4E0E6D4146EB060642EAC621F2
:1035600041EA55514FEAC52040EA5E504FEACE2E5F
:10357000B4F1FD0C88BFBCF5E06F1ED8BEF1004F62
:1035800008BF5FEA500E50F1000041EB045170BDDE
:1035900006F0004646EA010140EA020081EA030122
:1035A000B4EB5C04C2BFD4EB0C0541EA045170BD1E
:1035B00041F480114FF0000E013C00F3AB8014F198
:1035C000360FDEBF002001F0004170BDC4F10004E1
:1035D000203C35DA0C341BDC04F11404C4F1200562
:1035E00000FA05F320FA04F001FA05F240EA0200BD
:1035F00001F0004221F0004110EBD37021FA04F6F3
:1036000042EB06015EEA430E08BF20EAD37070BDAC
:10361000C4F10C04C4F1200500FA04F320FA05F00B
:1036200001FA04F240EA020001F0004110EBD3700D
:1036300041F100015EEA430E08BF20EAD37070BD7D
:10364000C4F1200500FA05F24EEA020E20FA04F356
:1036500001FA05F243EA020321FA04F001F0004105
:1036600021FA04F220EA020000EBD3705EEA430E76
:1036700008BF20EAD37070BD94F0000F0FD101F0A5
:103680000046400041EB010111F4801F08BF013CDE
:10369000F7D041EA060195F0000F18BF704703F01C
:1036A0000046520043EB030313F4801F08BF013DA3
:1036B000F7D043EA0603704794EA0C0F0CEA13555F
:1036C00018BF95EA0C0F0CD050EA410618BF52EA19
:1036D0004306D1D181EA030101F000414FF000001F
:1036E00070BD50EA410606BF1046194652EA43062D
:1036F00019D094EA0C0F02D150EA013613D195EAA1
:103700000C0F05D152EA03361CBF104619460AD1E8
:1037100081EA030101F0004141F0FE4141F47001F2
:103720004FF0000070BD41F0FE4141F4780170BDE2
:1037300070B54FF0FF0C4CF4E06C1CEA11541DBF47
:103740001CEA135594EA0C0F95EA0C0F00F0A7F849
:10375000A4EB050481EA030E52EA03354FEA013176
:1037600000F088804FEA03334FF0805545EA131389
:1037700043EA12634FEA022245EA111545EA106551
:103780004FEA00260EF000419D4208BF964244F1E8
:10379000FD0404F5407402D25B084FEA3202B61A07
:1037A00065EB03055B084FEA32024FF480104FF4DB
:1037B000002CB6EB020E75EB030E22BFB61A75464F
:1037C00040EA0C005B084FEA3202B6EB020E75EBE2
:1037D000030E22BFB61A754640EA5C005B084FEA4A
:1037E0003202B6EB020E75EB030E22BFB61A754617
:1037F00040EA9C005B084FEA3202B6EB020E75EB22
:10380000030E22BFB61A754640EADC0055EA060EE2
:1038100018D04FEA051545EA16754FEA06164FEA25
:10382000C30343EA52734FEAC2025FEA1C1CC0D1D1
:1038300011F4801F0BD141EA00014FF000004FF05E
:10384000004CB6E711F4801F04BF01430020B4F11F
:10385000FD0C88BFBCF5E06F3FF6AFAEB5EB030CD7
:1038600004BFB6EB020C5FEA500C50F1000041EBD4
:10387000045170BD0EF0004E4EEA113114EB5C04A1
:10388000C2BFD4EB0C0541EA045170BD41F4801174
:103890004FF0000E013C90E645EA060E8DE60CEA7C
:1038A000135594EA0C0F08BF95EA0C0F3FF43BAF99
:1038B00094EA0C0F0AD150EA01347FF434AF95EA50
:1038C0000C0F7FF425AF104619462CE795EA0C0F34
:1038D00006D152EA03353FF4FDAE1046194622E701
:1038E00050EA410618BF52EA43067FF4C5AE50EADB
:1038F00041047FF40DAF52EA43057FF4EBAE12E7CB
:103900004FF0FF3C06E000BF4FF0010C02E000BFAB
:103910004FF0010C4DF804CD4FEA410C7FEA6C5C8E
:103920004FEA430C18BF7FEA6C5C1BD001B050EA31
:10393000410C0CBF52EA430C91EA030F02BF90EA1C
:10394000020F0020704710F1000F91EA030F58BFDB
:10395000994208BF90422CBFD8176FEAE37040F03D
:10396000010070474FEA410C7FEA6C5C02D150EADB
:10397000013C07D14FEA430C7FEA6C5CD6D152EA96
:10398000033CD3D05DF8040B704700BF844610465B
:1039900062468C461946634600E000BF01B5FFF75A
:1039A000B7FF002848BF10F1000F01BD4DF808ED2A
:1039B000FFF7F4FF0CBF012000205DF808FB00BFFB
:1039C0004DF808EDFFF7EAFF34BF012000205DF855
:1039D00008FB00BF4DF808EDFFF7E0FF94BF0120A2
:1039E00000205DF808FB00BF4DF808EDFFF7CEFFA3
:1039F00094BF012000205DF808FB00BF4DF808EDE2
:103A0000FFF7C4FF34BF012000205DF808FB00BFB2
:103A10004FEA4102B2F1E04324BFB3F5001CDCF1F0
:103A2000FE5C0DD901F0004C4FEAC0024CEA507028
:103A3000B2F1004F40EB830008BF20F00100704757
:103A400011F0804F21D113F13872BCBF01F000405A
:103A5000704741F480114FEA5252C2F11802C2F18C
:103A6000200C10FA0CF320FA02F018BF40F001000D
:103A70004FEAC1234FEAD32303FA0CFC40EA0C00BF
:103A800023FA02F34FEA4303CCE77FEA625307D1FC
:103A900050EA01331EBF4FF0FE4040F44000704733
:103AA00001F0004040F0FE4040F40000704700BFCD
:103AB00080F0004002E000BF81F0004142001FBFE3
:103AC0005FEA410392EA030F7FEA226C7FEA236CEC
:103AD0006AD04FEA1262D2EB1363C1BFD2184140E1
:103AE00048404140B8BF5B42192B88BF704710F077
:103AF000004F40F4000020F07F4018BF404211F01A
:103B0000004F41F4000121F07F4118BF494292EA81
:103B1000030F3FD0A2F1010241FA03FC10EB0C00AD
:103B2000C3F1200301FA03F100F0004302D549423A
:103B300060EB4000B0F5000F13D3B0F1807F06D3E7
:103B400040084FEA310102F10102FE2A51D2B1F1DF
:103B5000004F40EBC25008BF20F0010040EA0300D4
:103B60007047490040EB000010F4000FA2F1010281
:103B7000EDD1B0FA80FCACF1080CB2EB0C0200FA0B
:103B80000CF0AABF00EBC25052421843BCBFD04059
:103B90001843704792F0000F81F4000106BF80F4D3
:103BA00000000132013BB5E74FEA41037FEA226C96
:103BB00018BF7FEA236C21D092EA030F04D092F061
:103BC000000F08BF0846704790EA010F1CBF002095
:103BD000704712F07F4F04D1400028BF40F00040F2
:103BE000704712F100723CBF00F50000704700F012
:103BF000004343F0FE4040F4000070477FEA226239
:103C000016BF08467FEA23630146420206BF5FEA09
:103C1000412390EA010F40F4800070474FF0000309
:103C200004E000BF10F0004348BF40425FEA000CD0
:103C300008BF704743F0964301464FF000001CE078
:103C400050EA010208BF70474FF000030AE000BFCE
:103C500050EA010208BF704711F0004302D540420C
:103C600061EB41015FEA010C02BF8446014600207E
:103C700043F0B64308BFA3F18053A3F50003BCFA99
:103C80008CF2083AA3EBC25310DB01FA02FC634446
:103C900000FA02FCC2F12002BCF1004F20FA02F24D
:103CA00043EB020008BF20F00100704702F1200240
:103CB00001FA02FCC2F1200250EA4C0021FA02F2A1
:103CC00043EB020008BF20EADC7070474FF0FF0CA6
:103CD0001CEAD0521EBF1CEAD15392EA0C0F93EAA1
:103CE0000C0F6FD01A4480EA010C400218BF5FEA43
:103CF00041211ED04FF0006343EA501043EA5111B6
:103D0000A0FB01310CF00040B1F5000F3EBF4900AF
:103D100041EAD3715B0040EA010062F17F02FD2AB3
:103D20001DD8B3F1004F40EBC25008BF20F0010096
:103D3000704790F0000F0CF0004C08BF49024CEAAD
:103D4000502040EA51207F3AC2BFD2F1FF0340EA3F
:103D5000C250704740F400004FF00003013A5DDCB0
:103D600012F1190FDCBF00F000407047C2F10002F1
:103D7000410021FA02F1C2F1200200FA02FC5FEADE
:103D8000310040F1000053EA4C0308BF20EADC7028
:103D9000704792F0000F00F0004C02BF400010F49A
:103DA000000F013AF9D040EA0C0093F0000F01F047
:103DB000004C02BF490011F4000F013BF9D041EA69
:103DC0000C018FE70CEAD15392EA0C0F18BF93EA6B
:103DD0000C0F0AD030F0004C18BF31F0004CD8D195
:103DE00080EA010000F00040704790F0000F17BF1C
:103DF00090F0004F084691F0000F91F0004F14D062
:103E000092EA0C0F01D142020FD193EA0C0F03D1B9
:103E10004B0218BF084608D180EA010000F00040BC
:103E200040F0FE4040F40000704740F0FE4040F497
:103E3000400070474FF0FF0C1CEAD0521EBF1CEA36
:103E4000D15392EA0C0F93EA0C0F69D0A2EB030254
:103E500080EA010C49024FEA402037D04FF08053EE
:103E600043EA111143EA10130CF000408B4238BFB3
:103E70005B0042F17D024FF4000C8B4224BF5B1AC1
:103E800040EA0C00B3EB510F24BFA3EB510340EA0F
:103E90005C00B3EB910F24BFA3EB910340EA9C00BD
:103EA000B3EBD10F24BFA3EBD10340EADC001B012D
:103EB00018BF5FEA1C1CE0D1FD2A3FF650AF8B42D1
:103EC00040EBC25008BF20F0010070470CF0004CDE
:103ED0004CEA50207F32C2BFD2F1FF0340EAC25009
:103EE000704740F400004FF00003013A37E792F0CA
:103EF000000F00F0004C02BF400010F4000F013A28
:103F0000F9D040EA0C0093F0000F01F0004C02BF22
:103F1000490011F4000F013BF9D041EA0C0195E78B
:103F20000CEAD15392EA0C0F08D142027FF47DAF24
:103F300093EA0C0F7FF470AF084676E793EA0C0F14
:103F400004D14B023FF44CAF08466EE730F0004C12
:103F500018BF31F0004CCAD130F000427FF45CAFA2
:103F600031F000437FF43CAF5FE700BF4FF0FF3C10
:103F700006E000BF4FF0010C02E000BF4FF0010C63
:103F80004DF804CD4FEA40024FEA41037FEA226C2C
:103F900018BF7FEA236C11D001B052EA530C18BF4E
:103FA00090EA010F58BFB2EB030088BFC81738BFB3
:103FB0006FEAE17018BF40F0010070477FEA226CA1
:103FC00002D15FEA402C05D17FEA236CE4D15FEA9D
:103FD000412CE1D05DF8040B704700BF84460846D1
:103FE0006146FFE70FB5FFF7C9FF002848BF10F192
:103FF000000F0FBD4DF808EDFFF7F4FF0CBF0120D7
:1040000000205DF808FB00BF4DF808EDFFF7EAFF60
:1040100034BF012000205DF808FB00BF4DF808ED1B
:10402000FFF7E0FF94BF012000205DF808FB00BF10
:104030004DF808EDFFF7D2FF94BF012000205DF896
:1040400008FB00BF4DF808EDFFF7C8FF34BF0120A3
:1040500000205DF808FB00BF4FEA4002B2F1FE4FBE
:104060000FD34FF09E03B3EB12620DD94FEA00233A
:1040700043F0004310F0004F23FA02F018BF404213
:1040800070474FF00000704712F1610F01D14202FA
:1040900005D110F0004008BF6FF0004070474FF0AE
:1040A0000000704742000ED2B2F1FE4F0BD34FF02A
:1040B0009E03B3EB126209D44FEA002343F000439E
:1040C00023FA02F070474FF00000704712F1610FC1
:1040D00001D1420202D14FF0FF3070474FF0000093
:1040E000704700BF844641EA000313F0030349D13F
:1040F000403A23D30B6803604B6843608B6883604E
:10410000CB68C3600B6903614B6943618B69836151
:10411000CB69C3610B6A03624B6A43628B6A836239
:10412000CB6AC3620B6B03634B6B43638B6B836321
:10413000CB6BC36340304031403ADBD230320BD3DB
:104140000B6803604B6843608B688360CB68C36017
:1041500010301031103AF3D20C3205D351F8043B31
:1041600040F8043B043AF9D2043208D0D2071CBF0D
:1041700011F8013B00F8013B01D30B880380604636
:10418000704700BF082A13D38B07B1D010F0030388
:10419000AED0C3F10403D21ADB071CBF11F8013BF8
:1041A00000F8013BA4D331F8023B20F8023B9FE723
:1041B000043AD9D3013A11F8013B00F8013BF9D296
:1041C0000B7803704B7843708B7883706046704730
:1041D0002DE9F041047890B000340646344818BF09
:1041E00001240AF063FF334B00250593324BAC42A8
:1041F00006930CBF2B4680230A934FF480730B93D6
:104200004FF480630C934FF0200314BF4FF002086B
:104210004FF001080D9326484FF4005305A90E9363
:104220000795CDF8208009950F950AF0B7FF204833
:1042300001210AF0DEFF01274FF460231F48694681
:10424000029300958DF804408DF8057003958DF864
:1042500010800AF097FE19480A213A4603230AF013
:10426000E2FE2CB115483178022203230AF0DBFE6E
:10427000124801210AF0B3FE104801210AF0A6FEFF
:104280000E480AF0B5FE0D480AF0B7FE0028FAD134
:104290000A480AF0B6FE09480AF0B8FE0028FAD12A
:1042A000064801210AF0B6FE10B0BDE8F08100BF5B
:1042B000080002404C24014018070020002401405F
:1042C000024B33F8100080B2704700BF180700207F
:1042D0002DE9FF41334B80461B78002B3BD0002457
:1042E00025462646274608220DEB0203532032219D
:1042F00009F062FB9DF809209DF80830013403EBBA
:1043000002231BB29DF80B201F449DF80A30E4B233
:1043100003EB02231BB21E449DF80D209DF80C30C8
:10432000202C03EB02231BB21D449DF80F3003F039
:104330007F0301D0002BD6D197FBF4F796FBF4F660
:1043400095FBF4F5184BADF80070ADF80260ADF8D0
:1043500004501C701DE0062202AB5320322109F0EC
:104360002BFB9DF809209DF8083003EB0223ADF8E4
:1043700000309DF80B209DF80A3003EB0223ADF8C6
:1043800002309DF80D209DF80C3003EB0223ADF8B0
:104390000430064B684641461A780AF003FD04B023
:1043A000BDE8F0811C0700201D0700200000002050
:1043B000154B10B51B7804462D21532008227BB1E4
:1043C00009F0F0FA31210A22532009F0EBFA2C21EE
:1043D0000C22532009F0E6FA53203821902209E0FC
:1043E00009F0E0FA31210A22532009F0DBFA5320C8
:1043F0002C210A2209F0D6FA40F20912034B1A8046
:104400000CB1034B1C7010BD1C070020960000204F
:104410000000002037B5114B0C461A68104B0021E4
:104420009A4205468DF8071001D1002013E0532071
:1044300001220DF1070309F0BFFA0028F5D09DF81D
:104440000730E52BF1D12A78064B01201A70064B74
:104450002360064B636003B030BD00BFA4010020A1
:10446000001BB7001C070020B1430008D142000820
:104470001FB504466B4602210622182009F09CFA5B
:104480009DF800309DF801209B0803EB0223ADF856
:1044900008309DF802309DF803209B0803EB0223AF
:1044A000ADF80A309DF804309DF805209B0803EB19
:1044B0000223ADF80C30044B02A821461A780AF00A
:1044C00071FC04B010BD00BF0100002010B504460F
:1044D0000F210822182009F065FA0E221820102159
:1044E00009F060FA034B4FF480521A800CB1024B72
:1044F0001C7010BD960000200100002037B500247C
:1045000002AB054603F8014D18202146012209F0AF
:1045100053FA50B19DF80730FB2B11BF2046044BD6
:1045200001202B6004BF034B6B6003B030BD00BFA4
:10453000CD44000871440008F0B5324B324C1B8862
:10454000628925899A1A6A43B4F91250D313B4F9CF
:104550001420ED021A4495FBF2F20A261A44E26195
:104560005643A2F57A6202FB02F3B4F904C0B4F92F
:104570000250B4F90EE0554302FB0CF2B4F90CC042
:104580001B130EFB03FE03FB0CF31B1403EB623344
:104590004CF250320233B4F806C09B1003F50043CE
:1045A0000CFB03F3B4F92070ED12B4F900404FEAAC
:1045B000D33C05EBEE2E154B0EEB84041D68BC407E
:1045C0000234A5EBA4043A4162434EBFB2FBFCF3B4
:1045D0005400B4FBFCF340F6DE3448BF5B001A1213
:1045E000524362430A4C08365C43241404EB2242D3
:1045F00002F6CF62361103EB221300B1036001B162
:104600000E60F0BD4E070020240700204807002060
:1046100043E3FFFF114B07B51B781BB9104A138802
:104620000133138001ABF6210322772009F0C4F98E
:104630009DF805309DF804201B0243EA02439DF8D3
:1046400006201343074AB2F92020C2F10802D340E2
:10465000054A136003B05DF804FB00BF1E0700208D
:104660002007002024070020480700200C4B07B536
:104670001B781BB90B4A13880133138001ABF62159
:104680000222772009F098F99DF804209DF8053062
:1046900043EA0223044A138003B05DF804FB00BF21
:1046A0001E070020200700204E070020064B002197
:1046B00093F82020054B9201343219707720F421B1
:1046C00002F0FC0209F06EB9240700201E0700204A
:1046D000034B00221A707720F4212E2209F062B9D0
:1046E0001E07002010B54FF480400AF0E1FD0128BC
:1046F000044605D14FF480400AF0E8FD014B1C70E0
:1047000010BD00BF1E0700202DE9F0476B4B8CB099
:104710001A686B4B05469A4200F0CB80DFF8BC91DB
:1047200099F80070002F40F0C580DFF8B4810226B0
:1047300010234FF4005A404602A94FF480448DF8EC
:104740000B608DF80A30ADF808A008F01BFE0423BA
:10475000404602A98DF80A30ADF8084008F012FE74
:104760000E213046C8F810A008F03EFE01260823AE
:1047700004A804948DF815308DF814708DF8166027
:104780000AF05AFD28238DF80C3003A80F238DF86A
:104790000D308DF80E308DF80F600AF0BDFB14203F
:1047A00009F0A3F932460DF107037720D02109F073
:1047B00003F99DF80730434C0322552BE3752284FF
:1047C00074D1D12132460DF10703772009F0F4F8B6
:1047D0009DF80730772003F00F021B0922766376DD
:1047E000162206ABAA2109F0E7F89DF818209DF8DB
:1047F0001930374643EA022323809DF81A209DF89A
:104800001B3043EA022363809DF81C209DF81D3075
:1048100043EA0223A3809DF81E209DF81F3043EA3F
:104820000223E3809DF820209DF8213043EA0223F3
:1048300023819DF822209DF8233043EA02236381DF
:104840009DF824209DF8253043EA0223A3819DF89A
:1048500026209DF8273043EA0223E3819DF8282093
:104860009DF8293043EA022323829DF82A209DF8EF
:104870002B3043EA022363829DF82C209DF82D30D3
:1048800043EA0223A38241F2707389F800602B800F
:1048900046F678136B800C4B6B600C4BAB600C4B8B
:1048A000EB600C4B2B610C4B6B6103E0C8F814A060
:1048B00000E0002738460CB0BDE8F087A4010020D6
:1048C000001BB70024070020D14600086D460008F1
:1048D000AD46000815460008394500084C07002081
:1048E000001001402DE9F74F4C4C4D4A6389166882
:1048F0002289A6EB032585FB0223B4F806800190EC
:1049000085FB0889A08800270604D009628840EA50
:10491000436080194FEAC2364FEA18228C4642EAB9
:1049200009624FEAE31179419219A6894FF0000715
:104930004FEA29237B4185FB0667F40D44EA4724AF
:1049400014F5FA6A4FEAE75545F1000BBAF5FA6F2C
:104950007BF1000646DAA4FB048904FB05F64FF060
:10496000050E09EB4609A8FB0E670EFB09775FEA07
:1049700067094FEA3608B0EB08004FEA960848EAA4
:104980008778284E61EB09014FEAA709B2EB0802CC
:1049900063EB09034FF0FF37B2457BEB070621DAE3
:1049A00040F6AC560027A4197D4104FB05F6A4FB94
:1049B000044505EB4605C4F100086FF0060606FB4A
:1049C0000588A4FB0667801947444FF00B0879411E
:1049D000A4FB086708FB05777F104FEA3606921B99
:1049E00063EB0703104C2668A6FB024506FB035544
:1049F000620D42EAC522101A4FEA6553019A63EB31
:104A00000101C30B43EA414302B11360BCF1000F43
:104A100001D0CCF800A003B0BDE8F08F580700200B
:104A20005407002024FAFFFF5007002007B500219B
:104A300001AB0322772008F0BFFF9DF805309DF8F9
:104A400004001B0243EA00439DF80600184303B02C
:104A50005DF804FB08B5FFF7E9FF014B186008BDDE
:104A60005007002008B5FFF7E1FF014B186008BDB3
:104A70005407002077204821012208F093BF7720B7
:104A80005821012208F08EBF454B73B51A68454B7B
:104A900005469A420FD0444C02234FF400568DF83D
:104AA00007302046102301A9ADF804608DF80630C8
:104AB00008F068FC66610A2009F017F87720A02149
:104AC00001220DF1030308F077FF002865D01E21B5
:104AD0000122772008F066FF4FF42F6008F0FAFFFC
:104AE0000026A6F160010024022201AB7720C9B2A2
:104AF0008DF804408DF8054008F05EFF9DF8042015
:104B00009DF8053043EA0223284AB3520236102E9C
:104B1000E7D12146D089012300F00F0600F47F4041
:104B2000D08132F811400131002C18BF0023082930
:104B3000F7D18BBB194611F0010F4FEA610404D085
:104B400012F814406340082404E032F8144083EA69
:104B50001423F8E713F4004F18BF83F4C053013C4B
:104B60004FEA4303F6D101311029E4D1C3F30333F3
:104B700030439E42D0810FD142F210732B806B8064
:104B80000B4B01206B600B4BAB600B4BEB600B4B8B
:104B90002B610B4B6B6100E0002002B070BD00BFC9
:104BA000A4010020001BB70000100140580700209E
:104BB0007F4A0008654A0008754A0008554A0008FF
:104BC000E548000837B5002402AB054603F8014D5F
:104BD0001E200A21012208F0EFFE50B19DF8073097
:104BE000482B03D125B1044B1D7001E0204600E0A5
:104BF000012003B030BD00BF1000002030B585B0EB
:104C00000622054603216B461E2008F0D5FE9DF8BE
:104C100001309DF800001A4C43EA002000B2FFF773
:104C200001F82168FFF752F8FFF716FA9DF80330F4
:104C3000ADF808009DF8020043EA002000B2FEF73C
:104C4000F1FFA168FFF742F8FFF706FA9DF805307B
:104C5000ADF80C009DF8040043EA002000B2FEF716
:104C6000E1FF6168FFF732F8FFF7F6F9054BADF8A1
:104C70000A00294602A81A780AF094F805B030BD57
:104C800004000020100000202DE9FF41634B644A1E
:104C90001B6893420DD14FF48053ADF804300223CA
:104CA0008DF8073004238DF806305E480DEB0301C4
:104CB00008E05D4A934207D104A94FF480435B4862
:104CC00021F80C3D08F05EFB322008F00EFF0021B9
:104CD00011221E2008F066FE012160221E2008F02D
:104CE00061FE642008F001FF002402A8FFF786FFA0
:104CF000274626460A25022101221E2008F052FEE0
:104D0000322008F0F2FE02A8FFF778FFBDF9082074
:104D1000BDF90A1014448A42A8BF0A46BDF90C30F6
:104D20000F4493421E44A8BF134613F5805F09DD6C
:104D30003C4A013DD36883F02003D360DBD14FF0C0
:104D4000010801E04FF000081E200021122208F0A7
:104D500029FE0A25022101221E2008F023FE32200E
:104D600008F0C3FE02A8FFF749FFBDF90820BDF90E
:104D70000A10A41A8A42A8BF0A46BDF90C307F1A4D
:104D80009342A6EB0306A8BF134613F5805F07DD29
:104D9000244A013DD36883F02003D360DAD101E0D7
:104DA0004FF000082046FEF73DFF01462048FFF780
:104DB00041F8204D20F0004028603846FEF732FFD1
:104DC00001461B48FFF736F820F000406860304687
:104DD000FEF728FF01461848FFF72CF820F00040A6
:104DE000A860002170221E2008F0DCFD0121202295
:104DF0001E2008F0D7FD1E200221002208F0D2FD5F
:104E0000642008F072FEB8F1000F04D14FF07E5319
:104E10002B606B60AB6004B0BDE8F081A4010020A2
:104E200000127A00000C0140001BB7000010014086
:104E300000406F460400002001C05E461FB50446D6
:104E40006B46012106221C2008F0B6FD9DF80130BA
:104E50009DF80020042143EA022242F38D0292FBD6
:104E6000F1F29DF80230ADF808209DF8032002A869
:104E700042EA032242F38D0292FBF1F29DF80430E4
:104E8000ADF80A209DF8052042EA032343F38D0381
:104E900093FBF1F3ADF80C30034B21461A7809F07F
:104EA00081FF04B010BD00BF1100002037B50546DA
:104EB0002023ADF8043004230DEB030102241C4829
:104EC0008DF806308DF8074008F05CFA2A210022A0
:104ED0001C2008F067FD0E2122461C2008F062FD10
:104EE0000F2103221C2008F05DFD2B2112221C2023
:104EF00008F058FD2C2122461C2008F053FD2D21DE
:104F000001221C2008F04EFD2E2100221C2008F05A
:104F100049FD05221C202A2108F044FD054B4FF4D1
:104F200080721A800DB1044B1D7003B030BD00BFFC
:104F300000080140960000201100002013B5002356
:104F40008DF807300F4B04461A680F4B9A4201D177
:104F5000002015E01C200D2101220DF1070308F0AF
:104F60002BFD0028F4D09DF807302A2B01D01A2BF6
:104F7000EED1064A01202260054A6260054A13709C
:104F800002B010BDA4010020001BB700AD4E000808
:104F90003D4E00086807002013B50222044601AB0D
:104FA0001B21682008F008FD9DF804209DF80530BD
:104FB00043EA022303F54E534FF48C72103393FBF4
:104FC000F2F32333238002B010BD00001FB5044666
:104FD0006B461D210622682008F0EEFC9DF801308A
:104FE0009DF80020042143EA022212B292FBF1F262
:104FF0009DF80230ADF808209DF8032002A842EA8F
:10500000032212B292FBF1F29DF80430ADF80A20AF
:105010009DF8052042EA03231BB293FBF1F3ADF8A0
:105020000C30034B21461A7809F0BCFE04B010BDC9
:105030001300002010B50446192008F056FD682022
:105040001521002208F0AEFC10B9032008F0E4FDA1
:105050000D4B16211A78682042F0180208F0A2FCC5
:1050600017210022682008F09DFC3D2101226820C4
:1050700008F098FC68203E21012208F093FC0CB156
:10508000024B1C7010BD00BF120000201300002056
:1050900038B5054619200C4608F027FD6820152173
:1050A000002208F07FFC18B3124B622C2B60124BCD
:1050B0006B60124BAB60124BEB60124B0FD004D8FD
:1050C0000A2C12D0142C0ED00BE0BC2C04D0B4F55A
:1050D000807F06D1002209E00120187038BD02222D
:1050E00004E0032202E0042200E005221A700120FD
:1050F00038BD00BF35500008CD4F0008994F00085B
:105100001844923112000020064B1A78064B12B157
:105110004FF4FF6201E04FF480521A8008B1034B54
:1051200018707047690700209600002014000020C6
:105130001FB504466B4643210622682008F03CFC5C
:105140009DF801309DF80020042143EA022212B2AA
:1051500092FBF1F29DF80230ADF808209DF8032093
:1051600002A842EA032212B292FBF1F29DF8043047
:10517000ADF80A209DF8052042EA03231BB293FBF9
:10518000F1F3ADF80C30034B21461A7809F00AFE12
:1051900004B010BD160000201FB504466B463B212D
:1051A0000622682008F008FC9DF800209DF80130D8
:1051B00002A843EA0223ADF808309DF802209DF8CA
:1051C0000330214643EA0223ADF80A309DF804205B
:1051D0009DF8053043EA0223ADF80C30024B1A78F3
:1051E00009F0E0FD04B010BD1400002013B54FF429
:1051F0000053ADF8043002238DF8073004238DF8F6
:1052000006301D4B1D4A1B680446934201D11C48C1
:1052100003E01C4A934203D11B4801A908F0B2F8ED
:105220006B218022682008F0BDFB052008F05DFCA2
:1052300019210022682008F0B5FB6B2103226820A9
:1052400008F0B0FB37210222682008F0ABFB0F4BBF
:105250001A211A78682008F0A5FB1B211822682063
:1052600008F0A0FB68201C21102208F09BFB0CB169
:10527000074B1C7002B010BDA401002000127A0080
:10528000000C0140001BB700001001401500002079
:10529000160000202DE9FF41074623200D46144645
:1052A0001E4608F022FC6820752101220DF107033B
:1052B00008F082FB002869D09DF80780B8F1680FDC
:1052C00063D106210A4602AB404608F075FB9DF803
:1052D0000D1001F001029DF80B1001F001014B00CF
:1052E00043EA82019DF8092002F001030B430AD032
:1052F0005BB2012B01D1012202E0022B0FD100226F
:10530000244B1A7012E00DF1070340460C210122D4
:1053100008F052FB9DF8073013F00F0303D105206E
:1053200008F07AFC02E0042BE9D1E4E71A4B3B6079
:105330001A4B7B601A4B2B601A4B6B601A4BEB605D
:1053400016B1144B1B783370142C184B15D004D89D
:10535000052C16D00A2C12D00DE0BC2C08D0B4F5C8
:10536000807F03D0622C06D102220BE0002209E0EC
:10537000012018700AE0032204E0042202E0052262
:1053800000E006221A70012000E0002004B0BDE811
:10539000F08100BF690700200951000899510008F9
:1053A000ED510008315100081844923115000020D9
:1053B0001FB504466B46A8210622682008F0FCFAB7
:1053C0009DF801309DF80020042143EA022212B228
:1053D00092FBF1F29DF80230ADF808209DF8032011
:1053E00002A842EA032212B292FBF1F29DF80430C5
:1053F000ADF80A209DF8052042EA03231BB293FB77
:10540000F1F3ADF80C30034B21461A7809F0CAFCD1
:1054100004B010BD1700002010B50446642008F049
:1054200064FB68202321F02208F0BCFA10B90320A5
:1054300008F0F2FB052008F058FB064B68201A78AC
:10544000202142F00F0208F0ADFA0CB1024B1C70A3
:1054500010BD00BF6A0700201700002037B50546C1
:1054600019200C4608F041FB0DF1070368200F21BD
:10547000012208F0A1FA9DF80730D32B15D10C4B6F
:105480004E2C2B600B4B6B600B4BEB600B4B06D029
:105490005D2C08D0362C14BF0022402200E0802270
:1054A0001A70012002E0C022FAE7002003B030BDEC
:1054B00019540008B1530008DDE9A7316A0700203C
:1054C000074BA1F57A7153F820301A689B8859432D
:1054D0004FF47A7391FBF3F189B21180704700BFEA
:1054E00064080020024B53F820301B681980704775
:1054F000640800202DE9F04F8E46484F05017C5985
:1055000087B007EB050A1146204690467246019384
:1055100000F00EFBDAF808100AF10802ADF80810E6
:105520001821DAF804008DF80A104FF0020B02A9D6
:1055300000928DF80BB007F025FF009A02A892F8B0
:1055400004A00AF0FAFB7022019B354EADF808204A
:105550000122ADF80A20ADF80E3000224FF480731E
:1055600006EB0509ADF80C20ADF810B0ADF814301D
:10557000BAF10C0F2BD8DFE80AF0072A2A2A102AE2
:105580002A2A192A2A2A2200204602A90AF0CEFA3B
:10559000204608210AF006FC19E0204602A90AF07C
:1055A00009FB204608210AF005FC10E0204602A96C
:1055B0000AF044FB204608210AF006FC07E02046DA
:1055C00002A90AF07DFB204608210AF005FC2F44C1
:1055D000BB7B1BB1204601210AF0CDFB20460121F7
:1055E0000AF0BDFBBAF10C0F10D8DFE80AF0070F84
:1055F0000F0F090F0F0F0B0F0F0F0D00343404E0C6
:10560000383402E03C3400E04034745148463544BC
:10561000A5F8048007B0BDE8F08F00BFF46401086E
:105620007C0700201B4A1C48138810B5038011809A
:10563000C91A40F68C2389B29942184B02D900222C
:105640001A7010BD40F2DA50A1F2EF2292B28242FB
:1056500019D81A78072A16D81148032A20F81210E8
:1056600010480AD8104C24888C423FBF012101FA0F
:1056700002F201780A4338BF027002780F2A02BF93
:10568000084A002111701A7801321A70074B002263
:105690001A8010BD5E080020BC08002061080020B0
:1056A0006C070020BE08002018000020AC0D002070
:1056B0007FB504460E46154601A80AF048FB0123B3
:1056C000ADF808302046002301A9ADF80460ADF81C
:1056D0000650ADF80A30ADF80C300AF0B7FB04B054
:1056E00070BD000038B5124B00010344DC79114A4B
:1056F00054B919810121D9711318197B1058BDE8CB
:1057000038400222FFF7D4BF1D8959810A4C491B3A
:105710009D7989B224F8151000249981DC71131841
:10572000197B10582246FFF7C3FF044B1C8038BD7D
:105730007C070020F46401086C070020AC0D0020F9
:105740002DE9F34707468946DFF85480060106EB4A
:105750000804A368114DADF8043035442823AA711C
:105760008DF806306068022301A98DF8073007F034
:1057700009FE56F80800217B0022FFF799FF20461A
:105780004FF6FF71012200F0F7F9204639464A46EC
:1057900000F0AEF9284602B0BDE8F0877C07002093
:1057A000F4640108F8B5028A454B04461A808379EF
:1057B0004278002B0CBF0023022302B10133414A7F
:1057C00052F823506E1E0D3516F8012FFF2A02F0F5
:1057D0000F0002F0F00309D13B4A3C4B1A602289CA
:1057E000B2F5FA7F6AD93A4A1A6067E0A17811B136
:1057F000811E01295FD9E17811B1011F03295AD90E
:10580000E17909B1814256D012F0300F03D02278ED
:10581000002A08BF0023227932B1A27922B9A0F16F
:105820000802012A98BF802362792AB1A2791AB9A5
:10583000021F032A98BF8023DA0607D500222549D4
:10584000FFF77EFF244B08221A7034E09F0608D52C
:10585000214F22493A78FFF773FF3B7801333B70C1
:1058600029E05A0615D51E4A23891778B3F5FA7F21
:1058700007F1010E82F800E01A4A8CBF08210121CD
:105880004A43B2FBF3F2A38992B2FFF733FE164B01
:105890000FE01B060FD5154B01211F787A1C1A70DB
:1058A0006289104B93FBF2F2E38992B2FFF722FE7A
:1058B0000F4B43F82700AE4286D18DE70020F8BD9C
:1058C00018000020C4640108E5540008B80800204E
:1058D000C1540008255600085C080020E556000861
:1058E0009408002040420F00640800206008002057
:1058F00098080020034B1B78834202D9024B1B6897
:105900001847704794080020B8080020044B1B7803
:10591000834281BF034B53F820301B6819807047C6
:105920006008002098080020014B33F810007047F1
:105930006C070020F8B504460D461646114B9B89AE
:10594000EEB115B12F78013500E0FF270D48022197
:105950000AF02CF80028F9D00A4839460AF021F854
:10596000084801210AF022F80028F9D005480AF079
:105970001AF8C0B20CB120700134013EE0E70120FA
:10598000F8BD00BF003800402DE9F0474FF48040DB
:1059900088B0012109F050FF4FF48040012109F047
:1059A00063FF344D18238DF802304FF42043ADF8D7
:1059B00000302846032369464FF004082E4F8DF827
:1059C000033007F0DFFC4FF4804328466946ADF80A
:1059D00000304FF480564FF0100A8DF8028007F027
:1059E000D1FC69462846ADF800608DF802A007F0AA
:1059F000C9FC384609F078FF4FF48273ADF80E30D9
:105A00004FF40073ADF8163007230024ADF81C30B6
:105A10004FF001090223384603A9ADF81230ADF862
:105A20000C40ADF81040ADF81A40ADF81490ADF848
:105A300018A009F08BFF3846494609F0A6FF9F23BE
:105A40008DF804308DF805408DF806408DF807403C
:105A500002A86E610DEB08014246FFF76BFF2E6155
:105A60009DF80900A0F1EF035842584108B0BDE885
:105A7000F08700BF000C01400038004070B50025E1
:105A80000D4EECB256F8246001358642F8D1A400E0
:105A9000E4B20025094EE8B2365C01358E42F9D1F8
:105AA0002044C0B20F289FBF054C04EB00100171C9
:105AB000027398BF836070BDD4650108E465010876
:105AC000102600200C2912D8DFE801F0071111116F
:105AD000091111110B1111110D00022104E0042113
:105AE00002E0082100E0102101220AF052B97047BB
:105AF00038B504460D461346217B00682A46FFF759
:105B0000BDFF2068217BBDE83840FFF7DBBF07B54C
:105B100000238DF804008DF8053001A801238DF8CD
:105B200006308DF8073009F0F7F903B05DF804FB93
:105B30007FB51646054601A80C460AF0F5F80C4B51
:105B4000013C03FB06F20B4B28461B6801A9B3FB83
:105B5000F2F20023013AADF80840ADF80420ADF8A8
:105B60000A30ADF8063009F097FF04B070BD00BFF1
:105B700040420F00A801002010B504460068FFF75E
:105B8000D7FF206801210AF0EAF8607BBDE81040E9
:105B9000FFF7BDBF10B500220A4CD3B254F8234022
:105BA00001328442F8D19B00DBB20022064CD0B215
:105BB000245C01328C42F9D103440448DBB200EB8F
:105BC000031010BDD4650108E4650108102600200B
:105BD00070B5022104460AF0E2F9012820460BD1F3
:105BE00002210AF0E7F920460021FFF7D3FF05461E
:105BF00020460AF0C7F934E004210AF0D0F9012860
:105C000020460BD104210AF0D5F920460421FFF7E4
:105C1000C1FF054620460AF0B8F922E008210AF043
:105C2000BEF9012820460BD108210AF0C3F920460D
:105C30000821FFF7AFFF054620460AF0A9F910E05A
:105C400010210AF0ACF9012812D1204610210AF0E7
:105C5000B1F920460C21FFF79DFF054620460AF0CA
:105C60009AF9AB6801461BB1287BBDE87040184724
:105C700070BD00000148FFF7ABBF00BF002C014022
:105C80004FF08040FFF7A4BF0148FFF7A1BF00BF5E
:105C9000000400400148FFF79BBF00BF0008004020
:105CA000014B33F820007047C0080020034B00224E
:105CB000DA6008B1024B0360704700BFB82B0020C8
:105CC000A15C0008072802BF034B01221A70034B96
:105CD00043F82010704700BFE0080020C0080020F3
:105CE000034B187818B1034900220A801A707047D4
:105CF000E0080020AC0D00201A481B490268006033
:105D00008A4219D0002103E0184B5B5843500431FC
:105D10001748184B42189A42F6D3174A02E000235C
:105D200042F8043B154B9A42F9D309F079F80FF089
:105D300071FD03F0E1FAFEE7114E1248306012489F
:105D4000016821F070610160410201600F4C182070
:105D500020600F490F4808600F48D0F800D0406815
:105D600000470000F04F0020EFBEADDEC8B10108D3
:105D700000000020FC060020FC060020FC3E002065
:105D8000181002400900000004000140140C0140FA
:105D9000000C01404434434400F0FF1FFEE70000C4
:105DA000F8B5174C06462378274673B907F08CFEE2
:105DB000144D2B683233984207D30120207007F02E
:105DC00057FF07F081FE2860F8BD3B78B3B107F0BC
:105DD0007BFE0C4C2368334498420FD3084B0020C1
:105DE000187007F045FF07F06FFE074A2060137830
:105DF0000BB1013B1370054B01221A70F8BD00BFB7
:105E0000E2080020E8080020400D0020E308002000
:105E100073B5234D8DF806202A788DF8073002AB34
:105E20008DF804008DF80510134413F8043C443B2E
:105E3000DBB20A2B2DD81B49022A31F8134003D8B4
:105E400014B12046FFF7ACFF2B78022B0CD9164B70
:105E50001E6807F039FE001B86423FBF104A002330
:105E60001370124A38BF1370114B1A78012A00D0F0
:105E7000A4B92A780020022A187098BF08490D4B4F
:105E80009CBF01320A70187002B0BDE8704007F084
:105E9000EFBE022A4FF03204D3D9D5E702B070BD6D
:105EA000E5080020E8650108E8080020400D002012
:105EB000E3080020E20800202DE9F0413F4D0646AE
:105EC0006B7B3F4F03B101234FF400703B7001F037
:105ED000B7F93C4CF8B13C4B1A883C4B10B293F8E4
:105EE000AE1001EB810E704513DDDFF8E8E09EF89F
:105EF00001E0BEF1000F0AD093F8AF304FF0010E71
:105F00000B4403EB8303984284F800E001DD022395
:105F1000237002B92270202001F072F960B1AA7AD0
:105F20002B4B12B9254AD27A22B12A4AD27A0AB91F
:105F3000012200E000221A702378022B02D14C20AB
:105F40004E211DE0012B07D14D210B4653204C2241
:105F5000BDE8F041FFF75CBF1D4B1B78012B03D15F
:105F6000532001464E2205E03B78012B04D15320FB
:105F7000014602464D23EBE7042E03D153204D2169
:105F80000A460AE0022E03D1532001464D2204E0C6
:105F9000012E04D153204D214E224423D8E70E4B2D
:105FA000187820B1BDE8F0413220FFF7F9BE0B4B65
:105FB0001870BDE8F04107F05BBE00BF822C0020E6
:105FC000E1080020E6080020AC0D0020102700208A
:105FD000E40800201E2C0020400D0020E2080020D4
:105FE00070B50646B6FBF2F40846154614B12046D5
:105FF000FFF7F6FF05FB1464024B1B5D00F8013B45
:1060000070BD00BF786701082DE9F04102780346B2
:10601000202A00F10100F9D0092AF7D02D2A02D157
:106020000346414D04E02B2A08BF03464FF07E553E
:106030001C460026234614F8012BA2F13007F9B2C2
:1060400009290DD839493046FDF740FE0646384645
:10605000FDF7E8FD01463046FDF730FD0646E9E76D
:106060002E2A17D1314F234614F8010B3038C2B213
:10607000092A0FD8FDF7D6FD3946FDF7DBFE0146AC
:106080003046FDF71BFD294906463846FDF71EFE42
:106090000746E8E71A7802F0DF02452A39D15A7834
:1060A0002D2A02D10233012704E02B2A14BF013329
:1060B00002330027013B002413F8012F303AD1B2FC
:1060C000092903D80A2101FB0424F5E7B4F59A7FD6
:1060D00028BF4FF49A74A0464FF07E53B8F1070FD3
:1060E00007D918461249FDF7F1FDA8F10808034643
:1060F000F4E704F0070434B118460C49FDF7E6FD57
:10610000013C0346F7E719462FB13046FDF792FEF2
:1061100004E04FF07E513046FDF7D8FD0146284699
:10612000FDF7D4FDBDE8F081000080BF00002041F4
:1061300020BCBE4C10B5441E14F8011F21B1034B06
:10614000186807F0D7FFF7E710BD00BFB82B002095
:106150000148FFF7EFBF00BF9D67010810B5074872
:10616000FFF7E8FF0024064B06481A19E158526869
:106170000C3408F0BFFCC02CF5D110BDCB67010872
:106180009C660108E167010870B507F09DFC264B8D
:106190004FF47A711A78254BB0FBF1F11B78244843
:1061A00008F0A8FC01F046F8224B05461968224B7E
:1061B0002248B1FBF3F108F09DFC0024204BE2B231
:1061C00053F8221041B1012393402B4202D01D48C5
:1061D00008F090FC0134F1E7022001F011F898B1C9
:1061E000194C1A4B22781A4853F8221008F082FCF6
:1061F0002378022B08D1174B17481B7F002B14BFA5
:106200006F216E2108F076FC1448FFF793FF144BC2
:106210001C8807F02BFC2146BDE8704002464FF475
:106220005F73104808F066BC6C2C002094000020BE
:10623000E9670108A801002040420F002768010813
:106240004875010845680108B80E00205C67010820
:1062500049680108B82B002053680108F58E010831
:10626000760D00205768010838B50C6805462046B1
:106270000FF02AFC214602462868BDE838400FF09E
:1062800051BC000008B50948FFF754FF0121002068
:1062900000F050FF0648FFF74DFF0A2007F025FCED
:1062A000BDE80840002007F0D3BC00BF89680108A2
:1062B00093680108F0B585B004460FF005FC082886
:1062C00027D1621EE01D204912F8013F09681944D8
:1062D000497801F00301022908BF203B8242137074
:1062E000F1D1254604F1080715F8016B174831462E
:1062F0000FF026FB20B1284631460FF021FB18B1E4
:106300001348FFF717FF1CE0BD42EDD1204600F017
:106310006FFE1048FFF70EFF00230F4A04A91A442E
:1063200092F808210A440949595C0133082B02F804
:106330000C1CF2D10023094801A98DF80C3008F09B
:10634000D9FB05B0F0BD00BFCC020020887D01085C
:10635000A2680108C2680108D4270020E467010888
:1063600008B501F04BFBBDE8084001300CBF024806
:106370000248FFF7DFBE00BFD7680108FD680108CB
:106380002DE9F04106460FF09FFB044601F0FEF8B0
:1063900005468CB92948FFF7CDFE294B53F8241048
:1063A00041B10123A3402B4202D0264808F0A2FBB2
:1063B0000134F2E7244821E03046244922460FF018
:1063C000B1FB58B92248FFF7B5FE224C54F8041F20
:1063D0000029EFD01B4808F08DFBF7E73378002544
:1063E0002D2B03BF013604F1FF344FF001084FF0AD
:1063F0000008134B53F8257027B91748BDE8F04142
:10640000FFF798BE3046394622460FF08BFB98B90D
:106410000120A840B8F1000F03D001F0AFF80F48F9
:1064200002E000F017FF0E48FFF784FE3946BDE892
:10643000F0410C4808F05EBB0135DAE71B69010842
:106440000066010845680108F58E010853730108CC
:106450002E690108FC650108436901085D690108AE
:1064600067690108E467010810B504460848FFF7AA
:1064700061FE084A00231370074A1360074A13702D
:1064800003F0BEF82046BDE81040FFF7FBBE00BF9A
:1064900070690108EC0800201C090020760F00201C
:1064A00008B50848FFF746FE012000F0DBFE06486D
:1064B000FFF740FE0A2007F018FBBDE80840002067
:1064C00007F0C6BB8869010895680108F8B507465A
:1064D0000FF0FAFA054638B91A4B1B4A5B791B488C
:1064E000013B52F8231028E0384619492A460FF09C
:1064F00019FB60B91748FFF71DFE174C54F8041F2D
:1065000019B1164808F0F6FAF8E7154805E0002436
:106510000D4B53F8246026B91248BDE8F840FFF748
:1065200009BE384631462A460FF0FCFA01340028ED
:10653000EED13146034B0C485C71BDE8F84008F0E1
:10654000D9BA00BFD427002040660108A36901081A
:1065500053730108B76901083C66010845680108E2
:10656000F58E0108CA690108E269010810B5044600
:1065700020460FF0A9FA10F0FF0F07D10B4B0C4883
:1065800093F87813BDE8104008F0B4BA20460FF035
:1065900015F9022808D8054B064C83F8780300202B
:1065A000014600F0C7FDE3E710BD00BFD42700207F
:1065B000F4690108186D010870B504460FF084FAFB
:1065C00008B9204830E020461F4900240FF070FD34
:1065D0002646254678B12CB1012C06D10FF0EEF8F5
:1065E000064602E00FF0EAF805461749002001349C
:1065F0000FF05EFDEEE70B2D05D9BDE870401348A6
:106600000C2108F077BA012C08DC114B294633F92C
:1066100015201048BDE8704008F06CBAA6F57A73F2
:10662000B3F57A7F04D90C48BDE8704008F062BA2F
:106630000A482946324608F05DFA054B23F81560F2
:1066400070BD00BF0A6A01083C8F0108446A010856
:10665000F42B00206A6A0108826A0108A46A010812
:1066600038B505460FF030FAC0B258B90446114D9E
:106670002146114835F8022F013408F03BFA152C59
:10668000F6D138BD28460FF099F8142804460ADCE4
:10669000202128460FF054F90FF090F8074B03EB38
:1066A0004403D88738BD06481521BDE8384008F0B6
:1066B00021BA00BF4C270020BD6A01081027002026
:1066C000C96A0108931E232B28BF0A22031EB8BFE4
:1066D0002D2010B50C46BCBF01F8010B5842FFF746
:1066E0007FFC00230370204610BD000030B5054636
:1066F00087B00C4603A800210C220FF0B3F82846FF
:106700000021FDF79FFC20B128462949FDF7D6F965
:1067100003E028462649FDF7CFF92649FDF7D6FACA
:10672000FDF79AFC054680EAE07069460A22A0EB74
:10673000E570FFF7C7FF002DACBF20232D2368466F
:106740008DF80C300FF0C0F9012807D130238DF8F7
:106750000D308DF80E308DF80F300CE0022805D189
:1067600030238DF80D308DF80E3004E0032804BF7F
:1067700030238DF80D30694603A80FF0C1F803A847
:106780000FF0A2F90338C5B22A4603A920460FF03C
:10679000F3F900236355204607490FF0B1F803AB26
:1067A000204659190FF0ACF8204607B030BD00BFA5
:1067B0006F12033A00007A44A068010837B50379E4
:1067C00004460D46052B34D8DFE803F003060A0D16
:1067D0001114836819782DE0836893F9001029E07B
:1067E0008368198826E08368B3F9001022E0836883
:1067F00019681FE0836869461868FFF777FF01464C
:10680000124808F077F9F5B1E068FDF70BFA694630
:10681000FFF76CFF01460E4808F06CF92069FDF7A0
:1068200001FA6946FFF762FF0146094808F062F97C
:1068300009E00021074808F05DF925B10648E16844
:10684000226908F057F903B030BD00BF5068010855
:106850004F680108E7860108EF6A01082DE9F04753
:1068600007460FF031F9504D064620B1012817D1E7
:106870003B782A2B14D14D48FFF75CFC00242959A2
:106880004B4808F037F928193146FFF797FF1434C1
:106890004848FFF74FFCB4F5026FF0D1BDE8F08730
:1068A00038463D210FF04CF8002864D0441C2046A7
:1068B0000EF084FF80462046FFF7A6FB81460026A7
:1068C0001424744355F804A050460FF0FDF85146C7
:1068D000024638460FF026F9002844D1324B1C44BA
:1068E000E068FDF79FF901464846FDF7A1FB002847
:1068F00037D02069FDF796F901464846FDF78EFB33
:1069000078B32279052A18BFC146052A1FD8DFE8C7
:1069100002F003030A0A1118142202FB0655AA68A2
:1069200082F8009013E0142202FB0655AA68A2F830
:1069300000900CE0142202FB0655AA68C2F80090F1
:1069400005E0142303FB0655AB68C3F800905146DD
:10695000194808F0CFF82046BDE8F0470021FFF7BE
:106960002DBF164803E00136682EA9D11448BDE8B2
:10697000F047FFF7DFBB04462E59394630460FF08B
:1069800087FA58B10A48314608F0B4F806480021A1
:106990002044FFF713FF074808F0ACF81434B4F5AF
:1069A000026FE9D1BDE8F08768750108F66A010851
:1069B000D56B0108F58E01080B6B0108166B0108F9
:1069C0003B6B01082DE9FF475848594D08F092F8F4
:1069D0005848FFF745FE6B79574A013B574852F834
:1069E000231008F087F828690021FDF703FB002831
:1069F0005CD1AA460446DAF8106000213046FDF763
:106A0000F9FA00284ED101344D482146DAF81490A5
:106A1000DAF81880DAF81C7008F06CF830460021BB
:106A2000FDF7F2FA10B1474808F064F869463046BD
:106A3000FFF75CFE0146444808F05CF84846002138
:106A4000FDF7E2FA10B13F4808F054F869464846AD
:106A5000FFF74CFE01463C4808F04CF84046002148
:106A6000FDF7D2FA10B1374808F044F869464046BD
:106A7000FFF73CFE0146344808F03CF83846002158
:106A8000FDF7C2FA10B12F4808F034F869463846CD
:106A9000FFF72CFE01462D4808F02CF80C2C0AF1CB
:106AA000100AA8D12A48611C08F024F800F06EFDF5
:106AB0000646284C54F8041F19B1274808F01AF864
:106AC000F8E70C46254B53F8241041B10123A340AD
:106AD000334202D0224808F00DF80134F2E74B1996
:106AE00093F8083104AA13441E4A8A5C013108292C
:106AF00003F8102CF3D100241B4869468DF8084098
:106B000007F0F8FF194D1A48615907F0F3FF2819EB
:106B10000021FFF753FE14341648FFF70BFBB4F5C2
:106B2000026FEFD104B0BDE8F08700BF586B0108D9
:106B3000D4270020186D010840660108886B010801
:106B4000936B01083C8F010850680108E467010855
:106B50009B6B0108FC650108AD6B0108006601082C
:106B6000BB6B0108887D0108C86B010868750108C6
:106B7000D16B0108F58E01082DE9F04188B005467A
:106B80000EF0A2FFC4B2002C6CD17A4D7A48FFF708
:106B9000D1FA2F4628690021FDF72CFA40BB0134B9
:106BA0007648214607F0A6FF286904A9FFF79EFD55
:106BB0000146734807F09EFF686904A9FFF796FD38
:106BC00001466F4807F096FFA86904A9FFF78EFDFC
:106BD00001466B4807F08EFFE86904A9FFF786FDC0
:106BE0000146684807F086FF0C2C05F11005D1D14D
:106BF000002607EB0414B0463746634D24341035A5
:106C0000A54212D0384655F8101CFCF757FF55F82E
:106C10000C1C07463046FCF751FF55F8081C064689
:106C20004046FCF74BFF8046E9E75848019702963B
:106C3000CDF80C80FFF77EFA002401AB53F8240056
:106C4000534920F00040FDF7FDF9524B524A013400
:106C5000002814BF10461846FFF76CFA032CECD13D
:106C60004E486FE028464E4905220EF05BFF38B9CA
:106C7000404B002203441030C0281A61F8D175E05F
:106C80002846484904220EF04DFF04462846FCB928
:106C900020210EF055FE002868D0451C28460EF035
:106CA00013FF0746404B53F824600EB93F4849E0B4
:106CB00028463146FAB20EF035FF38B9204602F0C8
:106CC00043FD3B48314607F015FF47E00134E9E753
:106CD0000EF074FD461E0B2E044643DC2846202190
:106CE0000EF02EFE054640B101352846FFF78CF91F
:106CF000204B24011851012400E00446284620219D
:106D00000EF01EFE054640B101352846FFF77CF91E
:106D1000184B013403EB06135861284620210EF06E
:106D20000FFE054640B101352846FFF76DF9114BBE
:106D3000013403EB06139861284620210EF000FE73
:106D400018B91C48FFF7F6F910E00130FFF75CF9BD
:106D5000084B032C03EB0616F061F2D11648FFF73F
:106D60000BFF03E015480C2107F0C4FE08B0BDE896
:106D7000F08100BFD4270020E36B01080E6C0108EE
:106D8000146C0108E4670108E8270020186C01086A
:106D90000AD7233CDF6B0108DB6B0108F58E010885
:106DA000276C01082D6C010840660108CA690108BA
:106DB000326C0108456C0108186D01087F6C0108F0
:106DC0002DE9F04F6B4E87B033785BB901236A48E9
:106DD0003370FFF7AFF96948FFF7ACF902E02F2BEA
:106DE00040F2B280664D286806F05EFFA846002893
:106DF00000F0BC80286806F065FF09280146614C58
:106E000001D03F2857D14FF00009CA4625685E4F90
:106E10002DB15E4839682A460EF084FE20B9B94685
:106E2000BAF1000F00D1BA46594B0C379F42EFD34D
:106E30005746BAF1000F1CD02B46DAF800C0D9F83B
:106E400000B01CF803E01BF80300704501D023607C
:106E50000FE05A1C4D4940B92D2B06D84FF0200E9B
:106E600001F803E02260885403E001F803E01346D0
:106E7000E7E723680BB1CA4512D04648FFF75AF935
:106E80004F4509D857F80C0BFFF754F9D8F8000014
:106E9000092107F02FF9F3E73848FFF74BF90025F0
:106EA00023689D429ED2394BD8F80000595D07F007
:106EB00021F90135F4E723684BB9042803D133489D
:106EC000FFF7D2FA52E00C283BD1334881E70C2877
:106ED000FBD00A2901D00D2929D13048FFF72AF922
:106EE0002A4D22680023AB5404932D4B03A8009332
:106EF000254910220C2303950EF064FC074638B197
:106F000000680EF0E1FD0130BB682844984702E0BC
:106F10002448FFF70FF91D48002130220EF0A2FC93
:106F2000002323603378002B7FF455AF1EE07F29C8
:106F30007FF455AF154A013B00212360D1541A4814
:106F40004AE77F283FF44EAFA1F12002D2B25E2A79
:106F50003FF648AF13B920293FF444AF5A1C2260D2
:106F60000A4A2868D15407F0C5F83BE707B0BDE8E6
:106F7000F08F00BF760F0020A76C0108DF6C0108BE
:106F8000B82B00201C0900209C660108EC0800209A
:106F90005C670108E46C0108E96C0108F58E0108E2
:106FA00069620008F46C0108156D01080E4B1A782F
:106FB0003A2A15D15A88B2F55F7F11D11A79BE2AC3
:106FC0000ED193F87A230020EF2A0BD113F8012B6E
:106FD0005040064A9342F9D1B0FA80F04009704718
:106FE00000207047704700BF00F801087CFB0108D3
:106FF00070B50546441E14F8011F61B1064E3046B7
:107000000EF09EFC0028F6D0044B801B1844631B36
:1070100080F80831EFE770BD887D0108D427002093
:107020002DE9F047FFF7C2FF10B90A2006F0F4FD82
:107030003B4C3C494FF45F722046FDF753F894F8FF
:107040007833C422022B84BF002384F8783394F869
:107050007813354B02FB0141184601F59671FDF797
:1070600041F8014690F82060C57F002240F6C41028
:1070700002FB02F3193B734303F6C41353436B4300
:1070800093FBF0F3294820F812300132072AEDD1A2
:1070900091F82160B4F8D0E0B2B291F822C0B4F80F
:1070A000D24002EB8205C6F164075242FFB26D0086
:1070B000CCF16408CEEB040492B2002093B20FFA34
:1070C00083FABAF1000F04DC002B14BF334601230E
:1070D00000E03B460AFB0AF95B4309FB0CF999FB0C
:1070E000F3F3434403FB0AF34FF00A0993FBF9F36C
:1070F0002B441BB263434FF47A7993FBF9F3DFF827
:107100003090734429F8103001300A320C2892B2C2
:10711000D4D1087803F0C0FBBDE8F04700F0E4BB31
:10712000D427002000F80108102700200C2D002093
:10713000362C0020F8B52E4B3A221A704FF45F72AD
:107140005A80BE221A71EF2283F87A230022074662
:1071500083F87B231C4649B193F87803C42202FBD1
:107160000030244900F59670FCF7BCFF00231A4656
:10717000E15C0133B3F55F7F82EA0102F8D11C4B79
:10718000002683F87B2308F0BDF8342008F0CEF801
:10719000194808F0F7F8042814D1174D05F1784381
:1071A000A3F5FC332846E15808F00AF9042805D075
:1071B000013608F0B3F8032EE5D103E00F4B043598
:1071C0009D42EBD108F0AAF8032E02D0FFF7EEFEA5
:1071D00010B90A2006F020FDFFF722FF37B1BDE805
:1071E000F8400F201421012203F016B8F8BD00BFAB
:1071F000D42700201027002000F801087CFB01089C
:10720000034B1B68184214BF01200020704700BFC9
:1072100020090020024A136818431060704700BF1D
:1072200020090020024A136823EA0000106070471A
:1072300020090020014B1868704700BF200900207A
:10724000034B9B68184214BF01200020704700BF09
:10725000D4270020024A936818439060704700BF0B
:10726000D42700202DE9F7430446FFF79FFE10B115
:10727000002C00F071816B46B94ABA4D1068516814
:10728000B94C03C34FF45F72002128460EF0EAFAAE
:107290000021C42220460EF0E5FA3A232B70082084
:1072A00003236B71FFF7D6FF1020FFF7D3FF0220F7
:1072B000FFF7D0FF4FF40070FFF7CCFF4FF41673C9
:1072C000A5F8F030FA23A5F8F2302A23A5F8EE301D
:1072D0004FF4FA73A5F8F6302B2385F805312123F6
:1072E00085F8063140F2DC53A5F8123140F24C43E8
:1072F000A5F8143140F26C73A5F8163140F27E43C4
:10730000A5F8D03040F23A73A5F8D23040F27E535F
:1073100000264FF00108142004224FF0200E4FF4F5
:107320007A7185F8F4E085F8040185F81021A5F854
:10733000D41085F87863A5F8F860A5F8FA60A5F888
:10734000FC6085F8E26085F8E36085F8E460A5F804
:10735000E660A5F8E860A5F8EA6085F8ED6085F8D4
:10736000EC8085F8076185F8296185F82A6185F840
:10737000186185F8196185F81A81A5F8D63040F2B0
:10738000EA53A5F8DE104FF4E131C5F820114FF4AF
:107390009641C5F8241140F6AC51A5F8D83040F21A
:1073A000B4534FF01E0CA98184F80BC0172184F848
:1073B0000CC04FF00B0C6175A17584F805C0552108
:1073C0004FF0080C2827A5F8DA30E17032232D2180
:1073D00084F810C04FF00E0CA5F8DC30A5F8E030B2
:1073E00061732371A071A17684F807C085F81C61D0
:1073F00085F81D6185F8286185F81B6185F879633A
:1074000026706770A770E675A6732676E6736676B3
:10741000607484F821300723A4F84030152384F8E1
:107420002F30524B50202363514BE0764FF0640CC9
:107430005A2063634F4B20724FF00A0984F81CC036
:1074400021754FF0780CE07741214B48A36384F815
:107450001290677284F80AC084F81E8084F82010A5
:1074600084F8236084F8246084F8256084F822601E
:10747000A4F844E0A4F84A2026856685E68484F8CA
:107480002C2084F82D7084F82E7084F83C80FFF74F
:10749000AFFDC82384F8AF304FF49663A4F8B03042
:1074A00040F2D933A4F8B230234684F8686084F8F7
:1074B000696084F86A7084F86B8084F86C6084F882
:1074C000AE904FF47F72A4F86E204FF4FA62A4F8E5
:1074D000702040F2DC52A4F872201DF8062001361C
:1074E000082E84F8742004F10804EAD1012283F8FC
:1074F000B42083F8B52083F8B620C82183F8BC20D7
:107500006422A3F8B810A3F8BE2014214FF4967299
:1075100083F8BA10A3F8C0201E21282283F8BB10DC
:10752000A3F8C2200023EA1810330021C02B1161F8
:10753000F9D10024281900F596700B49C422C434EF
:10754000FCF7D0FDB4F5137FF4D10020014603B061
:10755000BDE8F043FFF7EEBD03B0BDE8F08300BF28
:1075600040640108D4270020102700209A99193F71
:10757000F6287C3F3D0A773F917D0108024A9368D7
:1075800023EA000090607047D4270020014B9868E0
:10759000704700BFD427002010B5044C0023207092
:1075A000236106F091FA606110BD00BF542B0020EA
:1075B00010B5FCF737FB00210446FCF743FD08B18A
:1075C000204601E004F100400549FCF733FC054981
:1075D000FCF77CFB0CF0B4F9034B186010BD00BF46
:1075E0008096184B35FA8E3C1C000020F8B5101A16
:1075F0000D461F46FCF716FB0446781BFCF712FBF2
:10760000174B079E1968FCF761FB2146054620468B
:10761000FCF75CFB294607462846FCF757FB01466A
:107620003846FCF74BFA0CF0C7FB0E49FCF74EFB53
:10763000FCF738FD069B2946186004F100400CF069
:107640002FFA0949FCF742FB0849FCF737FAFCF727
:1076500003FD0028BCBF00F50C40A0303060F8BD31
:107660001C0000202C7D8E3FA00CB34500A00C46D2
:10767000F8B51D460E461446FCF7D4FA6968FCF7C7
:1076800025FB3146FCF722FB2168FCF717FA206046
:10769000FCF7E2FCED68074605F10040FCF7DCFC76
:1076A00006462846FCF7D8FC31460246384607F025
:1076B00055FAFCF7B7FA2060FCF7CEFCF8BD0000E5
:1076C00030B50546002002460B498C5C0B4694B150
:1076D0002E2C04D1013275B1134400245C550A23C9
:1076E0005843895C0132A1F13003092B9CBFA0F102
:1076F00030035818E8E730BD4C0A00202DE9F0416E
:107700002D4B2E4C93F81C3113B1012B0AD04EE0B7
:1077100062780C2353432A4A50682A4AD15806F00B
:10772000DFFA41E0264D686806F0DDFA2E460028B3
:107730003DD02378012B20D106F0C6F963690646B7
:10774000C31A632B35D92369042B14D84FF00C08C6
:1077500008FB03F31B4F6868F95806F0C1FA62781A
:10776000686808FB0273596806F092FA236966613B
:10777000013323611BE0022017E023693BB96278E3
:107780000C2353430F4A6868D15806F0A9FA2369BD
:107790000A4D8B2B08D80C4A7068D15C06F06AFA47
:1077A0002B6901332B6102E00320FFF7F5FE002374
:1077B0006360BDE8F08100BFD4270020542B002077
:1077C000B82B0020007F0108747E010810B51A4C08
:1077D0002378013B032B2ED8DFE803F002021D06BD
:1077E000BDE81040FFF78ABF63680522013363607C
:1077F00063780133DBB2B3FBF2F202EB82029B1A35
:10780000637006F061F90D4A002313700C4AA06002
:10781000D37201200BE006F057F9A368C01A40F6B6
:10782000C413984207D92020FFF7FCFC0420BDE8D0
:107830001040FFF7B1BE10BD542B0020CC2C00200F
:107840001E2C002010B50B4CE37A8BB10A4B1B7831
:10785000042B0DD9094A0A4B1068526818605A6007
:10786000FFF7A6FE074B1A88074B1A8001232373E4
:1078700010BD00BF1E2C0020CC2C0020A82C002006
:10788000782C0020582D0020DA090020002318460B
:1078900010B50F4A002122F810100E4A0E4C22F8A3
:1078A00010100E4A22F8101000221A511C44616078
:1078B000A2600B4C1A511C446160A260094C1A5121
:1078C0001C446160A260143308B90120E1E710BDD7
:1078D000540D0020322C0020980900204E2C00204E
:1078E00050090020140A002070B5204C204D60790A
:1078F000FCF794F91F49FCF79DFA2860E07BFCF740
:107900008DF91C49FCF796FA1B4E6860EE60A07971
:10791000FCF784F91949FCF78DFA194D2860207C91
:10792000FCF77CF91349FCF785FA6860A07EFCF748
:1079300075F91449FCF77EFAEE60A860E079FCF76F
:107940006DF90E49FCF776FA0F4D2860607CFCF764
:1079500065F90849FCF76EFA6860E07EFCF75EF9AD
:107960000849FCF767FAEE60A86070BD1027002098
:10797000C40900200000C8420000FA440000204171
:10798000F009002000007A448809002038B5054637
:107990000020FFF701FE4FF48070FFF751FCF8B1B3
:1079A000104C657006F090F8002363600E4BA060E9
:1079B00093F81C31002B14BF03240124FFF794FF1C
:1079C0000C226A43094B0A489A580A49234606F092
:1079D00053FC094B58600120BDE83840FFF7DCBD7F
:1079E00038BD00BF542B0020D4270020007F0108A1
:1079F00000440040C97B0008B82B00202DE9F0416D
:107A00001A4B1B78032B2DD1194C00226368DA62C4
:107A1000184B10225A6120225A616068144F06F0F8
:107A200043F960B1134D10262E617868D7F80080B5
:107A300006F048F90146404606F01CF96E612068E0
:107A40000B4F06F031F90028E7D00A4D202697E8C1
:107A500001012E6106F036F90146404606F00AF9AA
:107A60006E61DAE74FF0FF30BDE8F081542B002063
:107A7000B82B0020000C0140F7B50368174C184DD7
:107A800023600B68174E63600068FFF791FD95E86F
:107A90000300154B0196009394E80C00FFF7A6FD38
:107AA0003668124B60681E606B68114FC01AFCF795
:107AB000B9F8104B1968FCF709F9FCF7CDFA2A68F8
:107AC000236878609B1A3B600B4B1E600B4BB3F82E
:107AD000BE200B4B1A8003B0F0BD00BFE0090020B0
:107AE000A82C00203C0A0020480A0020DC090020C5
:107AF000840A00201C0000205C0A002010270020BF
:107B00007A0A002044F25063984203DDA0F50C404D
:107B1000A0387047034B9842BCBF00F50C40A03022
:107B2000704700BFB0B9FFFFF0B50446234B1D6896
:107B300026782146AB195A78013402F0040202F08B
:107B4000FF03002AF4D10A1A022A0ADD1BB103EB53
:107B500083035B00DBB210F8012B303A1344DBB235
:107B6000F1E7002281420AD91AB102EB82025200E7
:107B7000D2B210F8014B303C2244D2B2F2E72E2EA2
:107B80000FD1481C042600210A24614304782F19D0
:107B90007F787F0742BF303C01300919013EF3D1A5
:107BA00000E0002106484243642000FB012106203A
:107BB000B1FBF0F1034800FB0310F0BDCC02002044
:107BC00040420F00809698002DE9F04F9C4B8FB0FB
:107BD00093F81C31C4B2012B00F0D58002D3022BE4
:107BE00040F09D85242C08D1964A00231370964AB4
:107BF0001370964A137000F092BD2C2C01D02A2CE1
:107C00007ED1914F8F4E924B3A7835780020985420
:107C100090491A46B5B91B780D70472B67D1537838
:107C2000502B64D19378472B40F06885D378472B4D
:107C300040F064851379412B40F0608501230B707F
:107C400000F05CBD0A78012A3AD1022D05D1184610
:107C5000FFF76AFF804B186049E0032D07D11B78BE
:107C6000532B44D17C4A13685B4213603FE0042DE0
:107C700005D11846FFF758FF774B586037E0052DC0
:107C800007D11B78572B32D1734A53685B4253603C
:107C90002DE0062D07D11B78704A302B94BF0023AE
:107CA0000123D37223E0072D04D1FFF709FD6C4BAC
:107CB00018701CE0092D1AD1FFF702FD694B15E081
:107CC000022A14D1072D0BD10120FFF7F9FC41F254
:107CD000184358434FF47A73B0FBF3F0624B05E05E
:107CE000082D04D10120FFF7EBFC604B1880013513
:107CF00000232A2C35703B7039D101225C4B59E0AE
:107D00000D2C5B4801D00A2C25D10378F3B1504AE1
:107D100011785478A1F13003DBB2092B84BFA1F1B3
:107D20003703DBB2A4F1300203F00F031901D3B221
:107D3000092B84BFA4F13703DBB2444A03F00F03DD
:107D40000B441278DBB2D41A634263410022027002
:107D50009BB900F0E4BC3C4A13780E2B9FBF591C22
:107D600011703B4AD4540378002B40F0D884374A32
:107D700013785C40147000F0D2BC364B1B78012B9A
:107D800040F0CD842CE13B4B1A78082A00F2C784DE
:107D9000DFE802F00B05131B2A397E97A100622C45
:107DA00001D1022206E000221A70B52C40F0B784FF
:107DB0001A7801321A7000F0B2BC03221A702E4BEE
:107DC0001C702E4B1C702E4B0BE004221A702B4A99
:107DD0002B4913782344DBB213700A7813440B70D9
:107DE000284B1C7000F09BBC05221A70234A2449C2
:107DF00013782344DBB213700A7813440B70224BC0
:107E00001C8000F08CBC06221A701C4A1C49137896
:107E10002344DBB213700A7813441B4A0B70138897
:107E200003EB0424A4B2B4F5007F83BF00231380C6
:107E3000104A148088BF13700022144B00F05CBC01
:107E4000D4270020780A0020600A00208D0A002034
:107E50004C0A00204C090020A82C00201E2C0020D9
:107E6000CC2C0020302C0020522C0020A20D002011
:107E7000670A0020100A0020610A0020D4090020AF
:107E8000D50900204D090020D8090020C009002094
:107E90008D498E480A782244D2B20A7001780A4489
:107EA0008B4902700A88C72A9CBF8A4884540132D1
:107EB00092B20A8088490988914240F030840722B2
:107EC00078E708221A70804B1B78A34200F02784C1
:107ED0000022824B6EE700221A707C4B1B78A34273
:107EE00040F01D847E4B1B78062B3AD005D8022B20
:107EF00013D0032B25D000F012BC122B44D0302B12
:107F000040F00D84734B1A79764B102A88BF1022EB
:107F10001A7019786F4A002344E06E4B724A596810
:107F2000516099681B6911604FF47A7293FBF2F308
:107F30006E4A13806E4B1A786E4BDA7201226E4BCA
:107F400020E0644A537913F0010303D01379D81E5B
:107F500043424341664A1370002B34D1654AD372C1
:107F600031E05C4AD37A13F0010303D0937AD91E2F
:107F70004B424B415E490B700BB95E49CB7292F894
:107F80002F205E4B1A701EE0524B5D4A59699B6967
:107F9000118042F2107293FBF2F35A4A13800122CD
:107FA000594BEFE78B420EDA147A58481C54547A36
:107FB00057481C54D47A57481C5412F80C4F564852
:107FC0001C540133EEE74C490B78002B00F0A783DB
:107FD0004D4B1A78002A00F0A28300220A701A7012
:107FE0004E4CA368E36005F06FFDA0602020FFF712
:107FF00011F94B4B3F4C1A78012A0CBF0022012289
:108000001A70E37A002B00F08A833C4B1B78042B18
:1080100040F28583637803B92373227B12B90BB1D5
:10802000FFF710FC3F490A78531C052293FBF2F23C
:1080300002EB82029A1A3C4B0A7093F800E092001D
:108040000023294EDFF8FC9056F82310374891FBA7
:10805000F9F740F823103648364D40F8237036487B
:108060004FF0140B00FB071142F2107091FBF0F07F
:108070001FFA80F825F81380304DDFF8CCA00BFBF9
:10808000035B5AF823505BF802004BF802102D1ADC
:10809000294405254AF8231091FBF5F109FB071146
:1080A000274DBEF1010F45F823104FEA830C3546EA
:1080B00006D1A8F10200B0F5797F98BF4CF8061000
:1080C000002B43D10123BCE7D4090020D5090020AF
:1080D000C0090020900A0020D8090020100A0020C2
:1080E0004D090020CD2C0020A82C0020302C002091
:1080F000700A00201E2C0020D6090020CC2C002065
:10810000522C0020A20D0020660A00200C2C00201A
:10811000972C0020B02C0020FA2C0020542B00209B
:10812000A60D00208C0A0020A40C0020680A002064
:10813000040A0020EC090020806967FF2409002060
:108140007C09002080969800400A002005F0BCFCC5
:10815000AF4EB04F3368C01AFBF760FDAE49FBF776
:1081600069FE386005F0B0FC30603E684FF07E512B
:108170003046FBF749FF08B94FF07E560AAA3E6029
:10818000A64B00920BAA019295E803000CCBFFF7D7
:108190002DFA0A9A6420B2FBF0F20B9BA04993FBE4
:1081A000F0F30A809F4A1380237B0BB90B80138066
:1081B0009D4B9E4E1A789846002A39D039684FF068
:1081C0007E50FBF737FE824633682868C01AFBF7FB
:1081D00029FD5146FBF77AFDFBF73EFF73681FFA56
:1081E00080F96868C01AFBF71DFD914B1968FBF711
:1081F0006DFD5146FBF76AFDFBF72EFF01B28D487E
:108200000FFA89F3B0F902204FF0020C1144B0F9D3
:10821000002091FBFCF1134493FBFCF3DFF84CE2EC
:1082200089B29BB2AEF80210AEF8003041800380F4
:10823000012388F8003069682868237A716030600B
:1082400023B97D4BDB79002B00F069827B4CDFF892
:1082500020827B4ECDF80080019496E80C00FFF759
:10826000C5F96B687068DFF80C92C01AFBF7DAFC8E
:108270006F4B1968FBF72AFDFBF7EEFE33682A689F
:10828000C9F804009B1AC9F800306E4BA14693F957
:108290000030012B03D0022B00F0F0803FE26A4C4B
:1082A0006A4E0025DFF8CCB1DFF8C0A15BF82530BD
:1082B000DFF8C48118460493FBF7B4FC644ADFF886
:1082C00054911168FBF702FDFBF7C6FE3AF81570F2
:1082D000604AC01B87B222F815703FB23846FBF7E0
:1082E000A1FCD8F80010FBF7F1FCFBF7B5FE049BEE
:1082F00022461FFA80FCD9F80010F8184346CDF842
:108300000CC0FFF7B5F9DDF80CC0D8F808306044B0
:10831000D9F800C030806046CDF820C00393FBF749
:1083200089F85BF82570D4F808B08046584689462D
:10833000FBF780F8484BCDE9040193F8BA00FBF74E
:108340006DFCFBF777F830A3D3E90023FBF7C6F801
:1083500002460B4600204149FBF7EAF942464B46EC
:10836000FAF70AFF02460B4640464946FBF7E0F99A
:10837000804660688946381AFBF754FCDDF820C057
:108380006146FBF757FD5946FBF796FBFBF752F8A2
:1083900002460B4640464946FBF7A0F80B4602460C
:1083A000DDE90401FAF7E8FEFBF732FB67600146FE
:1083B0002061A0600398FBF789FCFBF74DFE28497C
:1083C0004FF4FA6206F0CAFB3AF81530254931330A
:1083D0009BB2622B338898BF0020184480B2308053
:1083E00040F6B83200B206F0B9FB14236B4354F8E0
:1083F000141B1D4A26F8020B9950002D40F08F8166
:1084000001254FE7AFF30080182D4454FB2119409C
:10841000E8090020740A002000007A44782C00202B
:10842000762C0020802C0020000A00207C0A0020EE
:108430001C000020620A00201E2C00203C0A0020A4
:10844000E0090020A40C0020500900204E2C002040
:10845000C409002078090020102700200000F03F08
:1084600030F8FFFF48F4FFFF140A00200C0A002038
:10847000480A0020840A0020F0090020AC4BD8F8FC
:108480000080B3F9C0604FEA58039E4228BF1E46E1
:10849000A84CB6B2258832B22BB29A4208DDA64962
:1084A0003868FBF713FCFBF7D7FD284486B226801B
:1084B000A24BD9F800401D68A14F651B2846FFF765
:1084C00021FB41F293130028D8BF40429842CCBF11
:1084D0000020012050B32846FBF7A4FB9949FBF785
:1084E000F5FB0BF09FFA05464046FBF797FB01466C
:1084F0002846FBF7EBFBFBF7AFFD934B80B21880F0
:10850000924900B240F6B83206F028FB48F6A04384
:108510002044984203DDA0F50C40A03804E0002878
:10852000BCBF00F50C40A030386000E03C6038680B
:10853000874DC0F50C502830FBF774FB8149FBF7E1
:10854000C5FB04460BF0FCF90D9020460BF06AFACF
:1085500000240C9030B2FBF765FB0CAB53F82410F1
:10856000FBF7B4FB7B4B074633F91400FBF75AFBD0
:1085700001463846FBF7A0FAFBF76EFD764F80B256
:108580004FF47A7227F81400744900B206F0E6FA44
:1085900080B2DFF8F0810FFA80FA27F81400504615
:1085A000FBF740FBD8F80010FBF790FBFBF754FDFE
:1085B000DFF8D49183B22A46D9F8001003935046CD
:1085C0004346FFF755F8D9F800C0D8F808300490B2
:1085D0006046CDF824C00893FAF72CFFD5F808B010
:1085E000804658468946FAF725FFDFF844A1CDE9D1
:1085F00006019AF8BA00FBF711FBFAF71BFF4AA332
:10860000D3E90023FAF76AFF02460B4600205449DB
:10861000FBF78EF842464B46FAF7AEFD02460B4694
:1086200040464946FBF784F837F91470804668687D
:108630008946381AFBF7F6FADDF824C06146FBF7E5
:10864000F9FB5946FBF738FAFAF7F4FE02460B46F7
:1086500040464946FAF742FF02460B46DDE906016D
:10866000FAF78AFDFBF7D4F9039A049B01461344F9
:1086700028616F60A86008981F46FBF727FBFBF78F
:10868000EBFC3844374F80B227F814002F4940F6EE
:10869000B83200B206F062FA1423634355F8141B93
:1086A000314A27F8140099500CB9012452E79AF87E
:1086B000BC3033B1224B64221B6893FBF2F32B4A8C
:1086C00013802B4ABAF8B83012689A420ED9294B57
:1086D00018681A4B1B68C01AFFF714FA42F210739D
:1086E00080EAE072A2EBE0729A4218DD224B01228E
:1086F0001A70224B1A881D4B1A8010E09278204B7A
:10870000522A7FF4F4AADA784D2A7FF4F0AA1B7972
:10871000432B7FF4ECAA02230B70FFF7E8BA0FB0EB
:10872000BDE8F08FAFF30080182D4454FB211940B1
:10873000102700207A0A00200000C8425C0A0020AE
:10874000DC090020D30237398409002048F4FFFFF8
:10875000140A00200C0A00207809002018FCFFFFF2
:108760000000F03F4E2C0020500900202C2D00204E
:10877000480A00203C0A0020A40C0020DA0900204E
:108780004C0A002088090020740A00200000000024
:108790002DE9F84F384E0446376838460BF0D0F8CC
:1087A000054638460BF03EF97668804630460BF0B9
:1087B000C7F8834630460BF035F9D4F804900646E6
:1087C00029464846FBF782FAA76882464146384662
:1087D000FBF77CFA01465046FBF76EF921688246AA
:1087E0005846FBF773FA414604464846FBF76EFAD3
:1087F0003146FBF76BFA01462046FBF75FF931463D
:1088000004463846FBF762FA2946FBF75FFA014651
:108810002046FBF753F9014650460BF041F9174942
:10882000FBF754FAFAF706FE11A3D3E90023FAF78F
:108830007FFF134B044618680D46FAF7FBFD02460E
:108840000B4620462946FAF797FC00220D4BFAF713
:108850006FFFFBF7DDF80BF0A9F883B21A0444BFF1
:1088600000F5B47083B218B2BDE8F88FAFF30080A2
:10887000182D4454FB210940BC0B00200000E144AA
:10888000940B0020000024400F4B10B51888FBF714
:10889000C9F90E490446FBF719FAFBF7DDFB0C4B4F
:1088A000214618800B48FBF7C5FA0B49FBF7C2FAC3
:1088B0000A4B18600820FEF7A3FC18B1BDE8104071
:1088C00003F09EB810BD00BF96000020C903683FAA
:1088D000700B00200AE81C4100401C46882B002039
:1088E0002DE9F04F0C68836887B0D0F800A0D0F86D
:1088F00004900746204601938B460BF021F88046F2
:1089000020460BF08FF8DBF80450044628460BF0A5
:1089100017F8064628460BF085F8DBF808200546D0
:10892000104600920BF00CF8009A834610460BF0AC
:1089300079F8414600905846FBF7C8F94146029045
:108940000098FBF7C3F9594603902046FBF7BEF9A0
:10895000009904902046FBF7B9F931460590584636
:10896000FBF7B4F901465046FBF7B0F929468346B8
:108970000498FBF7ABF901460398FBF79FF8014613
:108980004846FBF7A3F901465846FBF797F82946F6
:1089900083460298FBF79AF901460598FBF78CF895
:1089A00001460198FBF792F901465846FBF786F815
:1089B0000099386006F10040FBF788F901465046FF
:1089C000FBF784F9294683460598FBF77FF90146B2
:1089D0000298FBF771F801464846FBF777F9014624
:1089E0005846FBF76BF8294683460398FBF76EF968
:1089F00001460498FBF762F801460198FBF766F917
:108A000001465846FBF75AF8294678605046FBF76E
:108A10005DF93146054604F10040FBF757F9014680
:108A20004846FBF753F901462846FBF747F841460D
:108A300004463046FBF74AF901460198FBF746F930
:108A400001462046FBF73AF8B86007B0BDE8F08F62
:108A500080EAE073A3EBE0738B4206DB002801DDC4
:108A6000401A704702D00844704700207047000049
:108A70002DE9F041564A86B01368064603F10043DB
:108A800000935368534C03F100430193524BB3F9E5
:108A90000000FBF7C7F800F10040FAF7CBFC4AA34F
:108AA000D3E90023FAF71AFDFAF7B2FF0290B4F9FE
:108AB0000000FBF7B7F80390B4F90200FBF7B2F837
:108AC0000490B4F90400FBF7ADF8444C05906946F6
:108AD00003A8FFF705FF94F83C30012B15D1404B5C
